{
  "contractName": "BetBook",
  "abi": [
    {
      "anonymous": false,
      "inputs": [
        {
          "indexed": true,
          "internalType": "uint256",
          "name": "_id",
          "type": "uint256"
        },
        {
          "indexed": false,
          "internalType": "address",
          "name": "_winner",
          "type": "address"
        }
      ],
      "name": "joinBetEvent",
      "type": "event"
    },
    {
      "anonymous": false,
      "inputs": [
        {
          "indexed": true,
          "internalType": "uint256",
          "name": "_id",
          "type": "uint256"
        }
      ],
      "name": "startBetEvent",
      "type": "event"
    },
    {
      "inputs": [
        {
          "internalType": "uint256",
          "name": "",
          "type": "uint256"
        }
      ],
      "name": "bets",
      "outputs": [
        {
          "internalType": "uint256",
          "name": "id",
          "type": "uint256"
        },
        {
          "internalType": "address",
          "name": "seller",
          "type": "address"
        },
        {
          "internalType": "address",
          "name": "buyer",
          "type": "address"
        },
        {
          "internalType": "enum BetBook.Side",
          "name": "sellerCh",
          "type": "uint8"
        },
        {
          "internalType": "uint256",
          "name": "amount",
          "type": "uint256"
        },
        {
          "internalType": "enum BetBook.Side",
          "name": "result",
          "type": "uint8"
        }
      ],
      "stateMutability": "view",
      "type": "function"
    },
    {
      "inputs": [
        {
          "internalType": "address",
          "name": "",
          "type": "address"
        }
      ],
      "name": "pendingWithdrawals",
      "outputs": [
        {
          "internalType": "uint256",
          "name": "",
          "type": "uint256"
        }
      ],
      "stateMutability": "view",
      "type": "function"
    },
    {
      "inputs": [
        {
          "internalType": "uint256",
          "name": "_choice",
          "type": "uint256"
        }
      ],
      "name": "startBet",
      "outputs": [],
      "stateMutability": "payable",
      "type": "function"
    },
    {
      "inputs": [],
      "name": "getClosedBets",
      "outputs": [
        {
          "internalType": "uint256[]",
          "name": "",
          "type": "uint256[]"
        }
      ],
      "stateMutability": "view",
      "type": "function"
    },
    {
      "inputs": [],
      "name": "getOpenBets",
      "outputs": [
        {
          "internalType": "uint256[]",
          "name": "",
          "type": "uint256[]"
        }
      ],
      "stateMutability": "view",
      "type": "function"
    },
    {
      "inputs": [
        {
          "internalType": "uint256",
          "name": "_id",
          "type": "uint256"
        }
      ],
      "name": "joinBet",
      "outputs": [],
      "stateMutability": "payable",
      "type": "function"
    },
    {
      "inputs": [],
      "name": "withdraw",
      "outputs": [],
      "stateMutability": "nonpayable",
      "type": "function"
    }
  ],
  "bytecode": "0x608060405234801561001057600080fd5b50611249806100206000396000f3fe6080604052600436106100705760003560e01c806358a93bea1161004e57806358a93bea146100ea578063b42b308314610115578063d20e54a814610140578063f3f437031461015c57610070565b806322af00fa1461007557806339fb3f45146100b75780633ccfd60b146100d3575b600080fd5b34801561008157600080fd5b5061009c60048036038101906100979190610dc3565b610199565b6040516100ae96959493929190610eb7565b60405180910390f35b6100d160048036038101906100cc9190610dc3565b61022f565b005b3480156100df57600080fd5b506100e8610633565b005b3480156100f657600080fd5b506100ff610713565b60405161010c9190610fd6565b60405180910390f35b34801561012157600080fd5b5061012a610943565b6040516101379190610fd6565b60405180910390f35b61015a60048036038101906101559190610dc3565b610b72565b005b34801561016857600080fd5b50610183600480360381019061017e9190611024565b610d70565b6040516101909190611051565b60405180910390f35b60006020528060005260406000206000915090508060000154908060010160009054906101000a900473ffffffffffffffffffffffffffffffffffffffff16908060020160009054906101000a900473ffffffffffffffffffffffffffffffffffffffff16908060020160149054906101000a900460ff16908060030154908060040160009054906101000a900460ff16905086565b60008111801561024157506002548111155b61024a57600080fd5b600080600083815260200190815260200160002090506000349050600073ffffffffffffffffffffffffffffffffffffffff168260020160009054906101000a900473ffffffffffffffffffffffffffffffffffffffff1673ffffffffffffffffffffffffffffffffffffffff16146102c257600080fd5b3373ffffffffffffffffffffffffffffffffffffffff168260010160009054906101000a900473ffffffffffffffffffffffffffffffffffffffff1673ffffffffffffffffffffffffffffffffffffffff16141561031f57600080fd5b8082600301541461032f57600080fd5b6000600281111561034357610342610e40565b5b8260040160009054906101000a900460ff16600281111561036757610366610e40565b5b1461037157600080fd5b338260020160006101000a81548173ffffffffffffffffffffffffffffffffffffffff021916908373ffffffffffffffffffffffffffffffffffffffff16021790555060006002436103c3919061109b565b14156103fb5760018260040160006101000a81548160ff021916908360028111156103f1576103f0610e40565b5b021790555061043f565b600160024361040a919061109b565b141561043e5760028260040160006101000a81548160ff0219169083600281111561043857610437610e40565b5b02179055505b5b60008260020160149054906101000a900460ff16600281111561046557610464610e40565b5b8360040160009054906101000a900460ff16600281111561048957610488610e40565b5b14156105445781836003015461049f91906110fb565b600160008560010160009054906101000a900473ffffffffffffffffffffffffffffffffffffffff1673ffffffffffffffffffffffffffffffffffffffff1673ffffffffffffffffffffffffffffffffffffffff168152602001908152602001600020600082825461051191906110fb565b925050819055508260010160009054906101000a900473ffffffffffffffffffffffffffffffffffffffff1690506105f5565b81836003015461055491906110fb565b600160008560020160009054906101000a900473ffffffffffffffffffffffffffffffffffffffff1673ffffffffffffffffffffffffffffffffffffffff1673ffffffffffffffffffffffffffffffffffffffff16815260200190815260200160002060008282546105c691906110fb565b925050819055508260020160009054906101000a900473ffffffffffffffffffffffffffffffffffffffff1690505b837fb8f0f82b1b428d9b4c652fb245d1acc585adc1ec2dcfebbebf5e1d2839b7c12c826040516106259190611151565b60405180910390a250505050565b6000600160003373ffffffffffffffffffffffffffffffffffffffff1673ffffffffffffffffffffffffffffffffffffffff1681526020019081526020016000205490506000811161068457600080fd5b6000600160003373ffffffffffffffffffffffffffffffffffffffff1673ffffffffffffffffffffffffffffffffffffffff168152602001908152602001600020819055503373ffffffffffffffffffffffffffffffffffffffff166108fc829081150290604051600060405180830381858888f1935050505015801561070f573d6000803e3d6000fd5b5050565b60606000600254141561077157600067ffffffffffffffff81111561073b5761073a61116c565b5b6040519080825280602002602001820160405280156107695781602001602082028036833780820191505090505b509050610940565b600060025467ffffffffffffffff81111561078f5761078e61116c565b5b6040519080825280602002602001820160405280156107bd5781602001602082028036833780820191505090505b509050600080600190505b600254811161089257600073ffffffffffffffffffffffffffffffffffffffff1660008083815260200190815260200160002060020160009054906101000a900473ffffffffffffffffffffffffffffffffffffffff1673ffffffffffffffffffffffffffffffffffffffff16141561087f57600080828152602001908152602001600020600001548383815181106108645761086361119b565b5b602002602001018181525050818061087b906111ca565b9250505b808061088a906111ca565b9150506107c8565b5060008167ffffffffffffffff8111156108af576108ae61116c565b5b6040519080825280602002602001820160405280156108dd5781602001602082028036833780820191505090505b50905060005b82811015610938578381815181106108fe576108fd61119b565b5b60200260200101518282815181106109195761091861119b565b5b6020026020010181815250508080610930906111ca565b9150506108e3565b508093505050505b90565b6060600060025414156109a157600067ffffffffffffffff81111561096b5761096a61116c565b5b6040519080825280602002602001820160405280156109995781602001602082028036833780820191505090505b509050610b6f565b600060025467ffffffffffffffff8111156109bf576109be61116c565b5b6040519080825280602002602001820160405280156109ed5781602001602082028036833780820191505090505b509050600080600190505b6002548111610ac157600073ffffffffffffffffffffffffffffffffffffffff1660008083815260200190815260200160002060020160009054906101000a900473ffffffffffffffffffffffffffffffffffffffff1673ffffffffffffffffffffffffffffffffffffffff1614610aae5760008082815260200190815260200160002060000154838381518110610a9357610a9261119b565b5b6020026020010181815250508180610aaa906111ca565b9250505b8080610ab9906111ca565b9150506109f8565b5060008167ffffffffffffffff811115610ade57610add61116c565b5b604051908082528060200260200182016040528015610b0c5781602001602082028036833780820191505090505b50905060005b82811015610b6757838181518110610b2d57610b2c61119b565b5b6020026020010151828281518110610b4857610b4761119b565b5b6020026020010181815250508080610b5f906111ca565b915050610b12565b508093505050505b90565b60026000815480929190610b85906111ca565b919050555060006001821415610b9e5760019050610ba3565b600290505b6040518060c0016040528060025481526020013373ffffffffffffffffffffffffffffffffffffffff168152602001600073ffffffffffffffffffffffffffffffffffffffff168152602001826002811115610c0257610c01610e40565b5b815260200134815260200160006002811115610c2157610c20610e40565b5b81525060008060025481526020019081526020016000206000820151816000015560208201518160010160006101000a81548173ffffffffffffffffffffffffffffffffffffffff021916908373ffffffffffffffffffffffffffffffffffffffff16021790555060408201518160020160006101000a81548173ffffffffffffffffffffffffffffffffffffffff021916908373ffffffffffffffffffffffffffffffffffffffff16021790555060608201518160020160146101000a81548160ff02191690836002811115610cfb57610cfa610e40565b5b02179055506080820151816003015560a08201518160040160006101000a81548160ff02191690836002811115610d3557610d34610e40565b5b02179055509050506002547fdc5a47cec32f71a5763ed1129c085a88436327842a88bc8862d0027a70e8603060405160405180910390a25050565b60016020528060005260406000206000915090505481565b600080fd5b6000819050919050565b610da081610d8d565b8114610dab57600080fd5b50565b600081359050610dbd81610d97565b92915050565b600060208284031215610dd957610dd8610d88565b5b6000610de784828501610dae565b91505092915050565b610df981610d8d565b82525050565b600073ffffffffffffffffffffffffffffffffffffffff82169050919050565b6000610e2a82610dff565b9050919050565b610e3a81610e1f565b82525050565b7f4e487b7100000000000000000000000000000000000000000000000000000000600052602160045260246000fd5b60038110610e8057610e7f610e40565b5b50565b6000819050610e9182610e6f565b919050565b6000610ea182610e83565b9050919050565b610eb181610e96565b82525050565b600060c082019050610ecc6000830189610df0565b610ed96020830188610e31565b610ee66040830187610e31565b610ef36060830186610ea8565b610f006080830185610df0565b610f0d60a0830184610ea8565b979650505050505050565b600081519050919050565b600082825260208201905092915050565b6000819050602082019050919050565b610f4d81610d8d565b82525050565b6000610f5f8383610f44565b60208301905092915050565b6000602082019050919050565b6000610f8382610f18565b610f8d8185610f23565b9350610f9883610f34565b8060005b83811015610fc9578151610fb08882610f53565b9750610fbb83610f6b565b925050600181019050610f9c565b5085935050505092915050565b60006020820190508181036000830152610ff08184610f78565b905092915050565b61100181610e1f565b811461100c57600080fd5b50565b60008135905061101e81610ff8565b92915050565b60006020828403121561103a57611039610d88565b5b60006110488482850161100f565b91505092915050565b60006020820190506110666000830184610df0565b92915050565b7f4e487b7100000000000000000000000000000000000000000000000000000000600052601260045260246000fd5b60006110a682610d8d565b91506110b183610d8d565b9250826110c1576110c061106c565b5b828206905092915050565b7f4e487b7100000000000000000000000000000000000000000000000000000000600052601160045260246000fd5b600061110682610d8d565b915061111183610d8d565b9250827fffffffffffffffffffffffffffffffffffffffffffffffffffffffffffffffff03821115611146576111456110cc565b5b828201905092915050565b60006020820190506111666000830184610e31565b92915050565b7f4e487b7100000000000000000000000000000000000000000000000000000000600052604160045260246000fd5b7f4e487b7100000000000000000000000000000000000000000000000000000000600052603260045260246000fd5b60006111d582610d8d565b91507fffffffffffffffffffffffffffffffffffffffffffffffffffffffffffffffff821415611208576112076110cc565b5b60018201905091905056fea26469706673582212208615a48b6815178efdd5b94587cf4733cb59b9cdbe3694cc8898c50280e6056764736f6c634300080c0033",
  "immutableReferences": {},
  "source": "//SPDX-License-Identifier: MIT\npragma solidity ^0.8.11; \n\ncontract BetBook {\n    enum Side {NONE, HEAD, TAIL}\n\n    struct Bet {\n        uint id; \n        address seller; \n        address buyer; \n        Side sellerCh; \n        uint256 amount; \n        Side result; \n    }\n\n    mapping(uint => Bet) public bets; \n    mapping(address => uint256) public pendingWithdrawals; \n    uint betCounter; \n\n    event startBetEvent(uint indexed _id); \n    event joinBetEvent(uint indexed _id, address _winner); \n\n    function startBet(uint _choice) payable public {\n        betCounter++; \n\n        Side _sellerCh = Side.NONE; \n        if (_choice == 1) {\n            _sellerCh = Side.HEAD; \n        } else {\n            _sellerCh = Side.TAIL; \n        }\n\n        // store the bet\n        bets[betCounter] = Bet(\n            betCounter,\n            msg.sender, \n            address(0x0), \n            _sellerCh, \n            msg.value, \n            Side.NONE\n        ); \n\n        // trigger the event \n        emit startBetEvent(betCounter); \n    }\n\n    function getClosedBets() public view returns(uint[] memory) {\n        if(betCounter == 0) {\n            return new uint[](0); \n        }\n\n        //create a long array to hold\n        uint[] memory betIds = new uint[](betCounter); \n\n        uint numberOfClosedBets = 0; \n        for (uint i = 1; i <= betCounter; i++) {\n            if (bets[i].buyer != address(0x0)) {\n                betIds[numberOfClosedBets] = bets[i].id; \n                numberOfClosedBets++; \n            }\n        }\n\n        // copy it to a shorter array \n        uint[] memory closedBets = new uint[](numberOfClosedBets); \n        for (uint j = 0; j < numberOfClosedBets; j++) {\n            closedBets[j] = betIds[j]; \n        }\n        return closedBets; \n    }\n   \n    /* get and return an array of all the open bets at moment */ \n    function getOpenBets() public view returns(uint[] memory) {\n        if (betCounter == 0) {\n            return new uint[](0); \n        }\n\n        // create a long array to hold \n        uint[] memory betIds = new uint[](betCounter); \n\n        uint numberOfOpenBets = 0; \n        for (uint i = 1; i <= betCounter; i++) {\n            if (bets[i].buyer == address(0x0)) {\n                betIds[numberOfOpenBets] = bets[i].id; \n                numberOfOpenBets++; \n            }\n        }\n\n        // copy it to a shorter array \n        uint[] memory openBets = new uint[](numberOfOpenBets); \n        for (uint j = 0; j < numberOfOpenBets; j++) {\n            openBets[j] = betIds[j]; \n        }\n        return openBets; \n    }\n\n    \n    /* Join an open bet */ \n    function joinBet(uint _id) payable public {\n        require(_id > 0 && _id <= betCounter); \n\n        Bet storage bet = bets[_id]; \n        uint _amount = msg.value; \n        \n        // require that there is no buyer already\n        require(bet.buyer == address(0x0)); \n        require(bet.seller != msg.sender); \n        require(bet.amount == _amount); \n        require(bet.result == Side.NONE); \n\n        bet.buyer = msg.sender; \n\n        // select a rand side decide winner\n        if (block.number % 2 == 0) {\n            // head wins\n            bet.result = Side.HEAD; \n        } else if (block.number % 2 == 1) {\n            // buyer wins\n            bet.result = Side.TAIL; \n        }\n\n        address _winner = address(0x0); \n        if (bet.result == bet.sellerCh) {\n            pendingWithdrawals[bet.seller] += bet.amount + _amount; \n            _winner = bet.seller; \n        } else {\n            pendingWithdrawals[bet.buyer] += bet.amount + _amount; \n            _winner = bet.buyer; \n        }\n\n        emit joinBetEvent(_id, _winner); \n    }\n    \n    /* let caller of contract withdraw his money */ \n    function withdraw() public {\n        uint _amount = pendingWithdrawals[msg.sender]; \n\n        require(_amount > 0); \n\n        pendingWithdrawals[msg.sender] = 0; \n        payable(msg.sender).transfer(_amount); \n    }\n}\n\n\n\n\n\n\n\n\n\n\n",
  "sourcePath": "/Users/emilioandere/FlipCoin/contracts/FlipCoin.sol",
  "compiler": {
    "name": "solc",
    "version": "0.8.12+commit.f00d7308.Emscripten.clang"
  },
  "schemaVersion": "3.4.5",
  "updatedAt": "2022-02-27T01:27:42.939Z",
  "devdoc": {
    "kind": "dev",
    "methods": {},
    "version": 1
  },
  "userdoc": {
    "kind": "user",
    "methods": {},
    "version": 1
  }
}